:100000000CC026C025C024C023C022C021C020C0EF
:100010001FC01EC01DC01CC01BC011241FBECFE5C9
:10002000D2E0DEBFCDBF10E0A0E6B0E0EEEAF6E041
:1000300003C0C89531960D92A636B107D1F710E0EE
:10004000A6E6B0E001C01D92A038B107E1F7F1C10A
:10005000D7CFEF92FF920F931F93E62EF72E082F24
:10006000192F2DD247EE53E020E030E0E114F104E7
:100070000105110569F02F5F3F4F822F932FAA27AB
:1000800097FDA095BA2F8E159F05A007B10798F38D
:100090004150504057FFE8CF12D21F910F91FF906F
:1000A000EF9008956AEF70E080E090E0D2DF08956D
:1000B000522F40916600481738F1222329F53091DC
:1000C0006100E32FFF27E7FDF095EE0FFF1FE059DA
:1000D000FF4F8081A82FBB27A859BF4F81E090E038
:1000E000018002C0880F991F0A94E2F72C912827FB
:1000F0002C93373019F45093610003C03F5F309365
:1001000061004150409366000895982F209160004F
:100110002F3F49F4809161008F3F29F410926000D5
:100120001092610008C0273019F41092600003C0DB
:100130002F5F2093600080916000E82FFF27E7FD8C
:10014000F095EE0FFF1FE059FF4F615060836F5F26
:10015000915091839F5FE62FFF27E959FF4F892F29
:100160009927019721E030E002C0220F331F8A95C2
:10017000E2F7808182278083809166008F5F809381
:100180006600089590E0E8E6F0E092BB819188BBBC
:100190009F5F9830D0F30895782F4091610050917F
:1001A0006000451719F1E42FFF27E7FDF095EE0FEA
:1001B000FF1FE059FF4F8081282F3327862F992773
:1001C00001972817390761F48181282F3327872F5A
:1001D000992701972817390719F481E090E00895CD
:1001E000483009F44FEF4F5F4517E9F680E090E0A3
:1001F00008950F931F93CF93DF93D92FC82F062F06
:10020000172F413049F088818F3F09F03CC0F72F0C
:10021000E62F80818F3FB9F5C1D1282F392F97FF65
:1002200002C0295F3F4F287F821B930B8F5F88831B
:10023000B5D1282F392F97FF02C0295F3F4F287F64
:10024000821B930B8F5FF12FE02F8083682F8881B3
:10025000A3DF882309F7F12FE02F8081E82FFF2704
:10026000E7FDF095E959FF4F8881992787FD909523
:10027000019721E030E002C0220F331F8A95E2F798
:10028000808182278083DF91CF911F910F91089504
:100290004817D1F42617C1F4E22FFF27E7FDF095A8
:1002A000E959FF4F842F992787FD9095019741E0E9
:1002B00050E0242F352F02C0220F331F8A95E2F71A
:1002C00080818227808302C040E050E0952F842FF8
:1002D0000895782F4091610050916000451739F1E1
:1002E000E42FFF27E7FDF095EE0FFF1FE059FF4FCA
:1002F0008081282F3327862F992787FD9095019796
:100300002817390771F48181282F3327872F9927E0
:1003100087FD909501972817390719F48FEF9FEF04
:100320000895483009F44FEF4F5F4517C9F680E054
:1003300090E008958F929F92AF92BF92CF92DF92FA
:10034000EF92FF920F931F93CF93DF93D92FC82F74
:10035000C62ED72EA42EB52E822E932E8091660007
:100360008830C1F560EC7DE580E090E072DE888148
:100370009981AA81BB81853F21E0920720E0A207F5
:1003800020E0B20740F0845F9140A040B0408883F5
:100390009983AA83BB8384E0FD2DEC2D8083FB2D04
:1003A000EA2D808380E0E8E6F0E011928F5F8830EC
:1003B000E0F3109266008FEF8093600080936100FD
:1003C000F92DE82D8083F12FE02F80838EEFFF2D14
:1003D000EE2D8083DF91CF911F910F91FF90EF90D1
:1003E000DF90CF90BF90AF909F908F9008951F9314
:1003F000CF9318BA80E090E0E8E6F0E0119282BB7B
:1004000018BA019687309105CCF310E0C0E0C2BB6A
:100410008FEF88BB60E971E080E090E01ADE18BAE7
:10042000CF5FC830A0F31F5F123080F3CF911F91D0
:100430000895CFE5D2E0DEBFCDBF8FEF8ABB87BB8B
:1004400014BA81BB109266008FEF80936000809396
:1004500061008EEF80936700C7E01C2F80E0E8E624
:10046000F0E0119282BB18BA8F5F8830D4F312BAD1
:10047000809167008E3F19F411501F3FF1F08D3FBE
:1004800019F41F5F1930C9F08B3F19F4C150CF3FE9
:10049000A1F0873F19F4CF5FC93079F0612F8C2F1D
:1004A00034DE20E0412F6C2F84E002DE6BDE68EE4C
:1004B00073E080E090E0CDDDDBCF99DFC3CF83B385
:1004C0008F3F21F483B38093670008959091670074
:1004D00083B3981721F083B38093670018BA089507
:1004E0000895A0E0B0E0E6E7F2E0B1C0D92FC82F50
:1004F000E880F9800A811B81912F802F7F2D6E2D3E
:100500002DE133EF41E050E073D0A22EB32EC42E84
:10051000D52E912F802F7F2D6E2D2DE133EF41E0D1
:1005200050E066D0B92FA82F972F862F27EA31E405
:1005300040E050E0682F792F8A2F9B2F3ED0E62E87
:10054000F72E082F192F24E13BE040E050E09D2DCD
:100550008C2D7B2D6A2D31D0B92FA82F972F862F68
:10056000E81AF90A0A0B1B0BB12FA02F9F2D8E2D15
:100570001E141F041006110624F081509040A04064
:10058000B04888839983AA83BB839F77A070B0709B
:10059000EAE0CDB7DEB777C0A4DF089582E690E049
:1005A000A0DF0895AA27BB27809362009093630081
:1005B000A0936400B09365000895FF27EE27BB2742
:1005C000AA2760FF04C0A20FB31FE41FF51F220F6C
:1005D000331F441F551F969587957795679589F723
:1005E0000097760771F79F2F8E2F7B2F6A2F089524
:1005F000A1E21A2EAA1BBB1BEA2FFB2F0DC0AA1FBC
:10060000BB1FEE1FFF1FA217B307E407F50720F07B
:10061000A21BB30BE40BF50B661F771F881F991FF6
:100620001A9469F76095709580959095262F372FCD
:10063000482F592F6A2F7B2F8E2F9F2F08952F928F
:100640003F924F925F926F927F928F929F92AF9262
:10065000BF92CF92DF92EF92FF920F931F93CF93AF
:10066000DF93CDB7DEB7CA1BDB0B0FB6F894DEBF46
:100670000FBECDBF09942A88398848885F846E846C
:100680007D848C849B84AA84B984C884DF80EE80B6
:10069000FD800C811B81AA81B981CE0FD11D0FB6BF
:0E06A000F894DEBF0FBECDBFCA2FDB2F08952A
:0606AE00FFFF0100000047
:00000001FF
